:200000000C945C000C946E000C946E000C946E000C946E000C946E000C946E000C946E0082
:200020000C946E000C946E000C946E000C946E000C946E000C946E000C946E000C946E0050
:200040000C9413010C946E000C946E000C946E000C946E000C946E000C946E000C946E008A
:200060000C946E000C946E0000000000240027002A0000000000250028002B000404040467
:200080000404040402020202020203030303030301020408102040800102040810200102F1
:2000A00004081020000000080002010000030407000000000000000011241FBECFEFD8E063
:2000C000DEBFCDBF21E0A0E0B1E001C01D92A930B207E1F70E945D010C94CC010C940000FE
:2000E000E1EBF0E02491EDE9F0E09491E9E8F0E0E491EE23C9F0222339F0233001F1A8F4B5
:20010000213019F1223029F1F0E0EE0FFF1FEE58FF4FA591B4912FB7F894EC91811126C0B7
:2001200090959E239C932FBF08952730A9F02830C9F0243049F7209180002F7D03C0209139
:2001400080002F7720938000DFCF24B52F7724BDDBCF24B52F7DFBCF2091B0002F77209385
:20016000B000D2CF2091B0002F7DF9CF9E2BDACF3FB7F8948091050190910601A0910701ED
:20018000B091080126B5A89B05C02F3F19F00196A11DB11D3FBFBA2FA92F982F8827BC01A6
:2001A000CD01620F711D811D911D42E0660F771F881F991F4A95D1F708958F929F92AF92C3
:2001C000BF92CF92DF92EF92FF920E94B8004B015C0188EEC82E83E0D82EE12CF12C0E9446
:2001E000B800681979098A099B09683E734081059105A8F321E0C21AD108E108F10888EEEF
:20020000880E83E0981EA11CB11CC114D104E104F10429F7FF90EF90DF90CF90BF90AF9097
:200220009F908F9008951F920F920FB60F9211242F933F938F939F93AF93BF938091010157
:2002400090910201A0910301B09104013091000123E0230F2D3758F50196A11DB11D209381
:2002600000018093010190930201A0930301B09304018091050190910601A0910701B0910A
:2002800008010196A11DB11D8093050190930601A0930701B0930801BF91AF919F918F9188
:2002A0003F912F910F900FBE0F901F90189526E8230F0296A11DB11DD2CF789484B582601B
:2002C00084BD84B5816084BD85B5826085BD85B5816085BD80916E00816080936E00109244
:2002E000810080918100826080938100809181008160809381008091800081608093800069
:200300008091B10084608093B1008091B00081608093B00080917A00846080937A00809101
:200320007A00826080937A0080917A00816080937A0080917A00806880937A001092C10078
:20034000EDE9F0E02491E9E8F0E08491882399F090E0880F991FFC01E859FF4FA591B49192
:20036000FC01EE58FF4F859194918FB7F894EC91E22BEC938FBFC0E0D0E081E00E947000C5
:200380000E94DD0080E00E9470000E94DD002097A1F30E940000F1CFF894FFCFFFFFFFFFEA
:2003A000FFFFFFFFFFFFFFFFFFFFFFFFFFFFFFFFFFFFFFFFFFFFFFFFFFFFFFFFFFFFFFFF5D
:2003C000FFFFFFFFFFFFFFFFFFFFFFFFFFFFFFFFFFFFFFFFFFFFFFFFFFFFFFFFFFFFFFFF3D
:2003E000FFFFFFFFFFFFFFFFFFFFFFFFFFFFFFFFFFFFFFFFFFFFFFFFFFFFFFFFFFFFFFFF1D
:20040000141414FC001414F700FF0000FF00FF1414F404FC141417101F10101F101F141468
:20042000141F00101010F0000000001F101010101F10101010F010000000FF10101010105C
:2004400010101010FF10000000FF140000FF00FF00001F10170000FC04F414141710171488
:2004600014F404F40000FF00F714141414141414F700F7141414171410101F101F141414FB
:20048000F4141010F010F000001F101F0000001F14000000FC140000F010F01010FF10FF95
:2004A000141414FF141010101F00000000F010FFFFFFFFFFF0F0F0F0F0FFFFFF00000000F6
:2004C00000FFFF0F0F0F0F0F3844443844FC4A4A4A347E02020606027E027E0263554941B7
:2004E000633844443C04407E201E2006027E020299A5E7A5991C2A492A1C4C7201724C300E
:200500004A4D4D303048784830BC625A463D3E494949007E0101017E2A2A2A2A2A44445F93
:20052000444440514A444040444A51400000FF0103E080FF000008086B6B0836123624364D
:20054000060F090F06000018180000001010003040FF0101001F01011E00191D1712003CCD
:200560003C3C3C0000000000000103070F1F3F7F0080C0E0F0F8FCFE0000000800020100C3
:20058000000304070000000000000000DB40A4A62EAF2000A1C8D300408DAED580A8000037
:2005A000600000000000000000000000000000E00000000000000000000000000001E0001A
:2005C00000000000000000000000000001F00000000000000000000000000003F000000037
:2005E0000000000000000000000007F00000000000000000000000000007F8000000000005
:2006000000000000000000000FF800000003C0007E000001E0007F0FF800000003C000FE6A
:20062000000001E000FFEFF800000003C000FE000001E000FFFFF800000003C000F00000A8
:20064000000F007FFE7FC0000003C000F00000000F003FFE7FF83FF1FBCFFCFEF3BC3DEF8A
:20066000E01FFE7FFF7FFBFFDFFEFEFFBC3DEFE01FC6FFFF7FFBFFDFFEFEFFBC3DEFE00FD7
:20068000E3C7FE787BC3DE1EF0FFBC3DEF0007FF87FC787BC3DE1EF0F83C3DEF0001FFFF9F
:2006A000F0007BC3C01EF0F03C3DEF0001F37FE03FFBC3CFFEF0F03C3DEF0003E33F807F5D
:2006C000FBC3DFFEF0F03C3DEF0007E73C00787BC3DE1EF0F03C3DEF0007FFBE00787BC399
:2006E000DE1EF0F03C3DEF0007FFFE00787BC3DE1EF0F03C3DEF000FFFFE007FFBFFDFFE56
:20070000F0F03FFDEFE00FFFFF007FFBFFDFFEF0F03FFDEFE00FF9FF003E79F9CF9EF0F09C
:200720001F3DE7E01FF1FF0000000000000000000000001F80FF007FFFFFFFFFFFFFFFFF72
:20074000FFE01C007F007FFFFFFFFEB46D888D18E000001F007FFFFFFFFE95AD7DB577E013
:2007600000000F007FFFFFFFFEA5AD9D8D19E0000006007FFFFFFFFEB5ADEDB57EE0000099
:200780000000000180000000000000000000038000000000000000000007C000000000008E
:2007A0000000000007C00000000000000000000FC00000000000000000001FE000000000A4
:2007C00000000000001FE00000000000000000003FE00000000000000000003FF0000000CC
:2007E0000000000000007FF0000000000000001FF87FF0000000000000003FFE7FF0000058
:2008000000000000003FFF7FF0000000000000001FFFFBE0000000000000000FFFF9FFC06C
:200820000000000000000FFFF9FFF800000000000007FFF1FFFF00000000000003FC73FF54
:20084000FF80000000000001FE3FFFFF80000000000000FF1E0FFF000000000000007FFEB5
:200860001FFC000000000000003FFFFFF8000000000000000FDFFFE0000000000000001F3C
:2008800019FFC0000000000000003F3CFF00000000000000007E7CF8000000000000000014
:2008A0007FFE7C0000000000000000FFFFFC0000000000000000FFFFFE0000000000000049
:2008C00000FFFFFE0000000000000001FFEFFE0000000000000001FFCFFE00000000000062
:2008E0000003FF07FE0000000000000003FC07FE0000000000000003F003FE0000000000F9
:200900000000018000FE000000000000000000007E000000000000000000003E000000009C
:200920000000000000000C000000000000078000FC000003C0000000078001FC000003C01E
:20094000000000078001FC000003C0000000078001E00000001E000000078001E000000062
:200960001E007FE3F79FF9FDE7787BDFC0FFF7FFBFFDFDFF787BDFC0FFF7FFBFFDFDFF788E
:200980007BDFC0F0F787BC3DE1FF787BDE00F0F787BC3DE1F0787BDE0000F787803DE1E020
:2009A000787BDE007FF7879FFDE1E0787BDE00FFF787BFFDE1E0787BDE00F0F787BC3DE128
:2009C000E0787BDE00F0F787BC3DE1E0787BDE00F0F787BC3DE1E0787BDE00FFF7FFBFFDC3
:2009E000E1E07FFBDFC0FFF7FFBFFDE1E07FFBDFC07CF3F39F3DE1E03E7BCFC0000000004B
:200A000000000000000000FFFFFFFFFFFFFFFFFFFFC0FFFFFFFFFD68DB111A31C0FFFFFFCB
:200A2000FFFD2B5AFB6AEFC0FFFFFFFFFD4B5B3B1A33C0FFFFFFFFFD6B5BDB6AFDC0000079
:200A40000000250028002B0000000000240027002A0004040404040404040202020202027D
:200A600003030303030301020408102040800102040810200102040810202200FF210000A5
:200A80004616DC1911241FBECFEFD8E0DEBFCDBF11E0A0E0B1E0E2EAF6E302C005900D92B7
:200AA000A23CB107D9F723E0A2ECB1E001C01D92A337B207E1F715E0C1E4D5E004C0219708
:200AC000FE010E940D1AC034D107C9F70E94C9160C94441B0C94000090E0FC01EA59F54FAE
:200AE00024918E5A954FFC018491882399F090E0880F991FFC01E85BF54FA591B491FC0174
:200B0000E25CF54F859194918FB7F894EC91E22BEC938FBF0895089508950895AF92BF92E9
:200B2000CF92DF92EF92FF920F931F93CF93DF936C017B018B01040F151FEB015E01AE18DC
:200B4000BF08C017D10759F06991D601ED91FC910190F081E02DC6010995892B79F7C5019C
:200B6000DF91CF911F910F91FF90EF90DF90CF90BF90AF900895FC01538D448D252F30E03C
:200B8000842F90E0821B930B541710F0CF96089501970895FC01918D828D981761F0A28DFC
:200BA000AE0FBF2FB11D5D968C91928D9F5F9F73928F90E008958FEF9FEF0895FC01918D8B
:200BC000828D981731F0828DE80FF11D858D90E008958FEF9FEF0895FC01918D228D892FD8
:200BE00090E0805C9F4F821B91098F739927089586E892E00E94EC0521E0892B09F420E000
:200C0000822F089580E090E0892B29F00E94F80581110C9400000895FC01A48DA80FB92FAE
:200C2000B11DA35ABF4F2C91848D90E001968F739927848FA689B7892C93A089B1898C9183
:200C4000837080648C93938D848D981306C00288F389E02D80818F7D80830895EF92FF922A
:200C60000F931F93CF93DF93EC0181E0888F9B8D8C8D98131AC0E889F989808185FF15C0D4
:200C80009FB7F894EE89FF896083E889F98980818370806480839FBF81E090E0DF91CF91C3
:200CA0001F910F91FF90EF900895F62E0B8D10E00F5F1F4F0F731127E02E8C8D8E110CC065
:200CC0000FB607FCFACFE889F989808185FFF5CFCE010E940C06F1CFEB8DEC0FFD2FF11D57
:200CE000E35AFF4FF0829FB7F8940B8FEA89FB8980818062CFCFCF93DF93EC01888D882382
:200D0000B9F0AA89BB89E889F9898C9185FD03C0808186FD0DC00FB607FCF7CF8C9185FFDE
:200D2000F2CF808185FFEDCFCE010E940C06E9CFDF91CF91089590E0FC01E858FA4F24915E
:200D4000FC01EA59F54F3491FC01EE5AF54FE491EE23C9F0222339F0233001F1A8F42130E2
:200D600019F1223029F1F0E0EE0FFF1FE25CF54FA591B4918FB7F894EC91611126C03095A9
:200D80003E233C938FBF08952730A9F02830C9F0243049F7809180008F7D03C080918000B2
:200DA0008F7780938000DFCF84B58F7784BDDBCF84B58F7DFBCF8091B0008F778093B00029
:200DC000D2CF8091B0008F7DF9CF3E2BDACF3FB7F8948091770290917802A0917902B09137
:200DE0007A0226B5A89B05C02F3F19F00196A11DB11D3FBFBA2FA92F982F8827BC01CD013A
:200E0000620F711D811D911D42E0660F771F881F991F4A95D1F708958F929F92AF92BF92D3
:200E2000CF92DF92EF92FF924B015C010E94E7066B017C010E94E7066C197D098E099F09D4
:200E4000683E734081059105A8F321E0821A9108A108B10888EEC80E83E0D81EE11CF11C3B
:200E600081149104A104B10429F7FF90EF90DF90CF90BF90AF909F908F900895EF92FF9267
:200E80000F931F93CF93DF93EC01EC80FD806E157F050CF070C057FF04C0240F351F50E050
:200EA00040E08E819F81FA01E20FF31F8E179F071CF49C01241B350B121613060CF05BC016
:200EC000922F842F8695869586958E9DD0018F9DB00D11246A0F7B1FAF8DB8A1A60FB71F00
:200EE000477049F188E0841B482F682F70E0FB01E059FA4FE491281708F063C0621B710958
:200F00002FEF30E002C0359527956A95E2F7E2230130110539F0B0F10230110561F58C91B2
:200F2000E82702C08C91E82BEC93941720F12C813D81A20FB31FE92FE41BE83078F00230BE
:200F4000110521F58E2F9C9190959C932C813D81A20FB31F88508830B0F7E770EE2359F051
:200F6000F0E0E859FA4FE49101301105F9F010F10230110519F1DF91CF911F910F91FF9070
:200F8000EF900895E0958C91E823CECF81E00115110509F480E081959E2F8C932C813D81A4
:200FA000A20FB31F98509830C0F7D7CF8C91E82BEC93E1CFE0958C91E823FACF8C91E827B0
:200FC000F7CF0130110509F4ADCFE0F20230110509F4A5CFAE0DBF1DAECF0F931F93CF9336
:200FE000DF9377FF04C0260F371F70E060E0DC011496CD91DC91FB01E20FF31FCE17DF070E
:201000001CF49E01261B370B121613064CF5FA0157FD3796A3E0F595E795AA95E1F7EC9FD5
:20102000D001ED9FB00DFC9FB00D11246A0F7B1FDC015F96ED91FC91E60FF71F47705527DB
:2010400081E090E001C0880F4A95EAF7482F0130110559F0A8F02E0F3F1F02301105E1F054
:20106000DF91CF911F910F9108952E0F3F1FE217F307B1F38191DF011197842B8C93F7CF53
:2010800080952E0F3F1FE217F30751F39191DF01119798239C93F7CFE217F30709F381910E
:2010A000DF01119784278C93F7CF0F931F93FA01DC0156964C9156974230E9F04330A1F1E6
:2010C000413061F514964D915C91DA01AE1BBF0BFD01E21BF30B77FD0BC0DC0116964D91C7
:2010E0005C916417750724F4AB01BF010E94ED071F910F91089514964D915C91DA01A61BF4
:20110000B70BBD0161507109DC0116964D915C91DA01AE1BBF0BFD01E21BF30B77FDE8CF3E
:20112000AF010E943E07E4CF16964D915C91DA01A61BB70BBD0161507109CDCF0F931F93B7
:20114000FA01DC0156964C9156974230A9F0433091F1413019F514964D915C91DA01AE1B69
:20116000BF0BFD013197F7FD04C0AB01BF010E943E071F910F91089514964D915C91DA0197
:20118000A61BB70BBD01DC0116964D915C91DA01AE1BBF0BFD013197621B730BF7FDE9CFDF
:2011A000DC0116964D915C91E417F50714F7AF010E94ED07DECF16964D915C91DA01A61BD3
:2011C000B70BBD01621B730BCECFFC0177FD64C080859185681779070CF05EC057FD5CC0BE
:2011E00082859385481759070CF056C086898230B1F0833029F1813041F484819581841B30
:20120000950BAB01BC01615071092130310509F108F443C02230310509F463C008958481D0
:201220009581DC01A61BB70BBD016150710986819781DC01A41BB50BAD0141505109E5CF87
:2012400086819781861B970BBA01AC0141505109DCCFCA0157FD0796A3E095958795AA956A
:20126000E1F7A481B5818A9F90018B9F300D9A9F300D1124620F731F078CF0A1E02DE60F46
:20128000F71F4770552721E030E001C0220F4A95EAF78081822B80830895CA0157FD079638
:2012A00033E0959587953A95E1F7A481B5818A9F90018B9F300D9A9F300D1124620F731F04
:2012C000078CF0A1E02DE60FF71F4770552781E090E001C0880F4A95EAF7809590818923E4
:2012E000DACFCA0157FD079623E0959587952A95E1F7A481B5818A9F90018B9F300D9A9FF4
:20130000300D1124620F731F078CF0A1E02DE60FF71F4770552721E030E001C0220F4A9507
:20132000EAF780818227B7CF08958EBD00000DB407FEFDCF8EB508958CBD9DBD0895089565
:20134000FC016370668B8481958126813781613039F0633029F091878087338722870895CD
:20136000318720879387828708952F923F924F925F926F927F928F929F92AF92BF92CF9293
:20138000DF92EF92FF920F931F93CF93DF93CDB7DEB76A970FB6F894DEBF0FBECDBF9A8F18
:2013A000898F7A8369834A01D22E18870F833701BC2CDC0159962D913C915A9721153105DC
:2013C00009F015C118968D919C911997681779070CF0D7C11A968D919C91481759070CF04C
:2013E000D0C14C2C512CB6E0CB9E600D711D11247C876B87161617060CF0C3C1EA2DF0E093
:20140000FA87E98793E0EE0FFF1F9A95E1F7F88BEF87CF01840F951F181619060CF0B1C17B
:20142000A98DBA8D58968C91811104C0BFEABD1508F4D394A98DBA8DED91FC91119702843A
:20144000F385E02DCD010995B5E0DB9EC0011124E981FA81FC83EB83312C212C9C012859FD
:201460003F4F388F2F8B4A2D50E05E8B4D8BEF89F88DE20DF31D44919E828D82D12CC12C0B
:2014800069817A81620D731D7A8B698B842F90E09C8B8B8BE98DFA8DA081B18140FF82C03E
:2014A000F1E0BF126FC0AF126DC01C96ED91FC912F813885A4014C0D5D1D69897A89898DC0
:2014C0009A8D0995EB89FC89F595E7954E2F5FEFC51AD50A6D817E818D899E89680F791F86
:2014E0007E836D8398E0C916D10481F6AFEF2A1A3A0AEB81FC81E40DF51DFC83EB83F5E084
:201500002F16310409F0B3CF2F81388526153705B9F0A98DBA8DED91FC91B1E0BB1257C04C
:20152000AB1255C069817A816B5F7F4F0088F189E02D830128E030E0A401898D9A8D099531
:20154000A98DBA8DED91FC9111970688F789E02DCD016A960FB6F894DEBF0FBECDBFDF91BB
:20156000CF911F910F91FF90EF90DF90CF90BF90AF909F908F907F906F905F904F903F9058
:201580002F9009941E96ED91FC91EF80F88409851A8592014D815E816B817C81898D9A8DB2
:2015A000099590CF2F8138852615370509F48ACF31E0B31207C0A31205C01C96ED91FC9120
:2015C000930178CF1E96ED91FC917301E0CF6B857C85641975090684F785E02D73010F8547
:2015E00018899201A401898D9A8D0995A9CFF90134969491329745915491D91AB7E0DB9E4F
:20160000400D511D1124F901259134913C8B2B8BFA0125903490FA01329674903196349121
:20162000398B329664903196449041E04C1518F04A1508F07FC0662D062C000C770B7C831D
:201640006B83842D042C000C990B9E838D83A98DBA8DED91FC9111970284F385E02DCD01D1
:201660000995512CD12CC12CEA2DF0E0FA87E9872B2D30E03C872B87A401440D511D47FC09
:201680005A95588F4F8B69817A81660D711D67FC7A957E876D877989C71608F051CF2C2DF9
:2016A00030E04D815E81420F531FA985BA854A9FC0014B9F900D5A9F900D1124FC01E80D4F
:2016C000F91DF88BEF87852D612C4F89588D420F531F5E8B4D8B671408F050C044244394B9
:2016E000480E877041F4C1010196EB89FC89E20DF31DD4901C01D7FE19C0A98DBA8DED91ED
:20170000FC91662D70E0B1E0BB1219C0AB1217C02D853E85620F731F0484F585E02D2F8157
:2017200038854D895E89898D9A8D0995DD0C6394842DD1CF1E821D821C821B8288CF4B8186
:201740005C81640F751FAB85BC856A9FC0016B9F900D7A9F900D112469817A81680F791FE4
:201760000684F785E02DEF80F88409851A859D014F855889898D9A8D0995D8CF570CC394AF
:201780008ACF6A960FB6F894DEBF0FBECDBFDF91CF911F910F91FF90EF90DF90CF90BF905E
:2017A000AF909F908F907F906F905F904F903F902F9008958F929F92AF92CF92EF92FF928F
:2017C0000F931F93CF93DF93EC01262F898D9A8D009709F051C06A30D1F41D861C868D8907
:2017E00048E0849F900111248E859F85820F931F9F878E8781E090E0DF91CF911F910F9132
:20180000FF90EF90CF90AF909F908F9008956D3089F3CC88AD888F898823C1F08C859D85E8
:2018200036E0C39E800D911D1124488559854817590764F44E855F851D861C8638E0A39EAA
:20184000C0011124840F951F9F878E87EA88FB88088919894E855F856C857D85CE010E94CD
:20186000B5092C898C859D8546E0249F800D911D11249D878C87BECF6A3069F41D861C8669
:20188000FC013896E4912D898E859F85E29F800D911D1124ADCF6D3009F4ACCFFC013496D2
:2018A0003491631708F4A6CF3296E491E61708F4A1CFFC01329685909490462F431B342F9E
:2018C00047E0349F800C911C1124F401329634913196E4913323A9F1EE2399F1CC88F4010E
:2018E0003596E491AD884F89442301F10E2E000CFF0BE30FF11DCE9EA001CF9E500D1124E4
:201900006C857D85460F571F68857985641775076CF44E855F851D861C86FC013896E4918B
:20192000AE9E400D511D11245F874E87EA88FB88088919894E855F856C857D85CE010E946D
:20194000B509F4013496E4912C898C859D85E29F800D911D11248DCF6F927F928F929F92FC
:20196000AF92BF92CF92DF92EF92FF920F931F93CF93DF93EC016B015A0139014801E88129
:20198000F9810284F385E02D0995E881F9810288F389E02D87019301A501B601CE01099548
:2019A000A501480D591D41505109E881F9810288F389E02D9301B601CE010995E881F9813A
:2019C0000088F189E02D9401A501B601CE010995C60CD71CB60161507109E881F981008887
:2019E000F189E02D9401A501CE010995E881F9810688F789E02DCE01DF91CF911F910F91CB
:201A0000FF90EF90DF90CF90BF90AF909F908F907F906F9009946F927F928F929F92AF92BE
:201A2000BF92CF92DF92EF92FF920F931F93CF93DF935C01EB016A01490138018701DC01AD
:201A4000ED91FC916217730719F5641675062CF0962D872D3A01C92ED82E960126193709A4
:201A60002F5F3F4F048CF58DE02DA301BE01C5010995DF91CF911F910F91FF90EF90DF90C7
:201A8000CF90BF90AF909F908F907F906F9008954615570591F42617370724F0892D4B0193
:201AA000C22FD82F9E01281939092F5F3F4F068CF78DE02DA601B401DACF0284F385E02DBD
:201AC0000995D501ED91FC910488F589E02D83019401A601BE01C5010995D501ED91FC91AC
:201AE0000688F789E02DC501DF91CF911F910F91FF90EF90DF90CF90BF90AF909F908F902D
:201B00007F906F900994EF92FF920F931F93DC011A960D911C911B9718962D913C91199741
:201B2000ED91FC9100A0F1A1E02D7B0150E040E070E060E009951F910F91FF90EF90089566
:201B40004F925F926F927F928F929F92AF92BF92CF92DF92EF92FF920F931F93CF93DF93B1
:201B60006C012B015A0139014801DC01ED91FC910284F385E02D0995E201640C751CD601A2
:201B8000ED91FC91C615D7055CF40088F189E02D87019401A501BE01C60109952196EFCFC8
:201BA0000688F789E02DC601DF91CF911F910F91FF90EF90DF90CF90BF90AF909F908F906B
:201BC0007F906F905F904F9009948F929F92AF92BF92CF92DF92EF92FF920F931F93CF930E
:201BE000DF93EC015B014A016901E881F9810284F385E02D099595012C0D3D1D2150310915
:201C0000E881F9810488F589E02D78018401A401B501CE010995E881F9810688F789E02D06
:201C2000CE01DF91CF911F910F91FF90EF90DF90CF90BF90AF909F908F9009948F929F920E
:201C4000AF92BF92CF92DF92EF92FF920F931F93CF93DF93EC015B014A0169017801E88106
:201C6000F9810284F385E02D0995C80CD91C860101501109E881F9810488F589E02D9501F6
:201C8000A401B501CE010995E881F9810688F789E02DCE01DF91CF911F910F91FF90EF9081
:201CA000DF90CF90BF90AF909F908F900994EF92FF920F931F93DC01ED91FC9100A0F1A15D
:201CC000E02D09951F910F91FF90EF9008950F931F93DC01ED91FC91068CF78DE02D099561
:201CE0001F910F9108950F931F93DC01ED91FC91048CF58DE02D09951F910F910895DC0134
:201D0000ED91FC910084F185E02D09943F924F925F926F927F928F929F92AF92BF92CF921A
:201D2000DF92EF92FF920F931F93CF93DF935C017B014A016901390187E0680E711C93E053
:201D4000759467949A95E1F72B01400E511E10E000E0312CD0E0C0E0CE0187709927330C4D
:201D6000892B59F4FE0183E0F595E7958A95E1F7E00FF11FE80DF91D349037FE0AC021E035
:201D800030E0A701B5016C0F7D1F8FE293E00E947F0E2196CC16DD06F9F68FEFE81AF80ABE
:201DA000060D171DE414F504A9F6DF91CF911F910F91FF90EF90DF90CF90BF90AF909F9093
:201DC0008F907F906F905F904F903F9008952F923F924F925F926F927F928F929F92AF9293
:201DE000BF92CF92DF92EF92FF920F931F93CF93DF9300D000D000D0CDB7DEB73C016A0155
:201E00003E832D83FC82EB825801A41AB50AB7FE03C0B194A194B1088D809E80861A970A79
:201E200097FE03C09194819491088A149B045CF0902F812F0D811E819D838E839C2D8D2D9E
:201E40006B01692F782F0C151D055CF09D818E817E836D83692F782F902F812F8601C92EFE
:201E6000D82E1601201A310A2B012D813E81421A530A57FE03C0519441945108710137FEAC
:201E800003C03FEFE31AF30AF594E7948D819E81861797075CF5A1E0B0E0BA83A983C0164A
:201EA000D1064CF1D301ED91FC910484F585E02D2B813C81A8016D817E818A149B041CF0D8
:201EC0004D815E81B801C3010995E418F508F7FE0AC02D813E8189819A81280F391F3E83A0
:201EE0002D83E20CF31C0F5F1F4FD9CF2FEF3FEF3A832983D4CF26960FB6F894DEBF0FBEE2
:201F0000CDBFDF91CF911F910F91FF90EF90DF90CF90BF90AF909F908F907F906F905F9060
:201F20004F903F902F900895089520912802260F3327331F21323105ECF420914C02FC01D9
:201F400090E080E0243069F082E00895A09128022191AC01485F5D4FA40FB52FB11D2C93D4
:201F60000196861798F380912802680F6093280280E0089581E0089510924C0281E0809374
:201F80004E0210924D0261E082E10E949B0661E083E10E949B06E9EBF0E080818E7F80837C
:201FA00080818D7F808388E48093B80085E48093BC000895CF93DF9391E0909307028823E9
:201FC000B9F0C091B800D091BA008091BC008A7B8093BC0060E082E10E949B0660E083E109
:201FE0000E949B060E94BC0FD093BA00C093B800DF91CF910895E091810280918002E81716
:2020000030F4F0E0EE51FE4F808190E008958FEF9FEF089590918102809180022FEF3FEF06
:20202000981748F4E92FF0E0EE51FE4F208130E09F5F90938102C9010895809180029091D1
:202040008102891B990B0895CF92DF92EF92FF920F931F93CF93DF937C01CB018A01209187
:202060008502222389F0EB016B01C40ED51ECC15DD0569F06991D701ED91FC910190F08103
:20208000E02DC7010995F3CF642F0E94950FC801DF91CF911F910F91FF90EF90DF90CF906D
:2020A0000895CF93DF931F92CDB7DEB76983209185022223F9F020918202203258F021E0C3
:2020C00030E0FC013383228390E080E00F90DF91CF91089580918302E82FF0E0EE53FE4FB1
:2020E000998190838F5F809383028093820281E090E0ECCF61E0CE0101960E94950FF7CF57
:20210000CF92DF92EF92FF920F931F93CF93DF93D091820281E0D13208F09CC0C09184023F
:202120000E94E7066B017C0180914C0281116CC082E080934C0281E080934E028FEF8093F2
:202140004B0210927002D0936F02A2ECB1E0EFE4F2E080E0D8138DC0109271028091710255
:20216000CC0FC82BC093710280914D02813009F084C010924D020E94E7066B017C01809103
:2021800071028093BB008091030290910402A0910502B0910602892B8A2B8B2BA1F00E94EE
:2021A000E706009103021091040220910502309106026C197D098E099F09061717072807C0
:2021C000390708F442C08091BC0083FDD8CF85EC8093BC000E94E7066B017C0180914C02B6
:2021E000823009F44CC080914B028F3F09F469C080914B02803209F466C080914B0280338E
:2022000009F463C084E026C08091030290910402A0910502B0910602892B8A2B8B2B09F47A
:2022200083CF0E94E706009103021091040220910502309106026C197D098E099F09061798
:2022400017072807390708F06FCF809102020E94DA0F85E010928302109282021092850240
:20226000DF91CF911F910F91FF90EF90DF90CF9008959D9191938F5F6DCF85EEA9CF80914D
:20228000030290910402A0910502B0910602892B8A2B8B2B09F4A2CF0E94E70600910302DF
:2022A0001091040220910502309106026C197D098E099F09061717072807390708F08ECFAD
:2022C000C4CF80E0C7CF82E0C5CF83E0C3CFEF92FF920F931F93CF93DF937C01C62F8091CD
:2022E0004C0390914D03009709F459C02091500331E0309385022093840210928302109210
:202300008202DC01ED91FC910190F081E02D60E009958701EE24E394F12CD1E0C150809163
:202320004C0390914D03CF3F91F1B0E2EB16F104D8F00E94801080914C0390914D03209149
:202340005003D0938502209384021092830210928202DC01ED91FC910190F081E02D60E083
:202360000995EE24E394F12C80914C0390914D03F8016491DC01ED91FC910190F081E02D63
:202380000995BFEFEB1AFB0A0F5F1F4FC7CFDF91CF911F910F91FF90EF900C948010E091A6
:2023A0005C03F0915D039081809162038095892380838701C15008F438C0F8018491209146
:2023C0004A0330914B03232B29F00E9495090F5F1F4FF0CF28E030E040E8E0915803F091D2
:2023E000590390916003582F5423D9F05081952B9083E0915A03F0915B039081509161038F
:20240000952B9083E0915A03F0915B03508190916103909595239083469521503109E9F691
:20242000D6CF508190959523E3CFDF91CF911F910F91FF90EF9008951F93CF93DF93EC0159
:202440008D8D9E8D009721F1162F29A131E030938502209384021092830210928202DC01C1
:20246000ED91FC910190F081E02D60E009958D8D9E8DDC01ED91FC910190F081E02D612F98
:2024800009958D8D9E8DDF91CF911F910C948010ADA5BEA59C918BA9809589238C938B8D9B
:2024A0009C8D892B31F0862FDF91CF911F910C94950928E030E080E8A9A5BAA599A9462FC7
:2024C0004823C1F04C91942B9C93ABA5BCA59C914AA9942B9C93ABA5BCA54C919AA9909560
:2024E00094239C9386952150310931F7DF91CF911F9108954C9190959423E6CFDF92EF928B
:20250000FF920F931F93CF93DF9380914C0390914D03892B09F498C02091640330916503E7
:20252000409166035091670360E074E284EF90E00E94EB19205131094109510956954795E1
:20254000379527952093B80065E08AE79AE00E9467116091330361508FE293E00E941C12B2
:202560002091350330913603C901079697FD079633E0959587953A95E1F720913303309138
:202580003403829F8001839F100D929F100D1124C0914E03D0914F0380914C0390914D037A
:2025A0000C0F1D1F009709F48FC02091500331E030938502209384021092830210928202FC
:2025C000DC01ED91FC910190F081E02D60E40995EE24E394F12CDD24D39480914C03909193
:2025E0004D030C171D0709F446C0B0E2EB16F104D8F00E94801080914C0390914D0320913D
:202600005003D0928502209384021092830210928202DC01ED91FC910190F081E02D60E4BD
:202620000995EE24E394F12C80914C0390914D036991DC01ED91FC910190F081E02D0995F6
:20264000BFEFEB1AFB0AC9CF80914A0390914B03892B31F080916D0390916E030E949C092E
:20266000E0915E03F0915F0390818091630380958923808369CF0E94801080914C0390916E
:202680004D03892B09F461C0209168033091690340916A0350916B0360E074E284EF90E0C9
:2026A0000E94EB19205131094109510956954795379527952093B800DF91CF911F910F914B
:2026C000FF90EF90DF900895E0915C03F0915D03808190916203892B80830C171D0769F24F
:2026E000899120914A0330914B03232B19F00E949509F3CF28E030E040E8E0915803F091CD
:20270000590390916003582F5423D9F05081952B9083E0915A03F0915B039081509161036B
:20272000952B9083E0915A03F0915B03508190916103909595239083469521503109E9F66E
:20274000CCCF508190959523E3CFE0915E03F0915F03808190916303892B8083ADCF1F935C
:20276000CF93DF93EC01162F8D8D9E8D892BB1F12DA93EA94FA958AD60E074E284EF90E085
:202780000E94EB19205131094109510956954795379527952093B80066EA111167EACE01F8
:2027A0000E941C128D8D9E8D892B41F129AD3AAD4BAD5CAD60E074E284EF90E00E94EB1941
:2027C000205131094109510956954795379527952093B800DF91CF911F9108958B8D9C8D92
:2027E000892B21F08EAD9FAD0E949C09EFA5F8A990818CA9809589238083CECFEFA5F8A935
:2028000080819CA9892B8083E5CF90E080E008952091350330913603C901079697FD07961F
:2028200023E0959587952A95E1F72091330330913403829FA001839F500D929F500D1124D5
:2028400070E060E080914E0390914F030C943D1B0E94381BFB0101900020E9F73197AF0121
:20286000461B570BDC01ED91FC910280F381E02D09940F931F93CF93DF93EC010E942A1418
:202880008C0166E571E0CE010E942A14800F911FDF91CF911F910F91089585ED8093BC0023
:2028A0008091030290910402A0910502B09106020796A11DB11D23E0B695A795979587955F
:2028C0002A95D1F72091BC0024FD03C010924C0208954091030250910402609105027091DD
:2028E0000602452B462B472B69F30097A105B10541F02AE22A95F1F700C00197A109B1098E
:20290000E1CF809102020C94DA0F1F920F920FB60F9211242F933F934F935F936F937F9300
:202920008F939F93AF93BF93EF93FF9386E892E00E940C06FF91EF91BF91AF919F918F9117
:202940007F916F915F914F913F912F910F900FBE0F901F9018951F920F920FB60F921124B3
:202960002F938F939F93EF93FF93E0919602F09197028081E0919C02F0919D0282FD1BC080
:20298000908180919F028F5F8F732091A002821741F0E0919F02F0E0EA57FD4F958F8093C1
:2029A0009F02FF91EF919F918F912F910F900FBE0F901F9018958081F4CF1F920F920FB614
:2029C0000F9211242F933F938F939F93AF93BF938091730290917402A0917502B091760227
:2029E0003091720223E0230F2D3758F50196A11DB11D209372028093730290937402A0931E
:202A00007502B09376028091770290917802A0917902B0917A020196A11DB11D8093770247
:202A200090937802A0937902B0937A02BF91AF919F918F913F912F910F900FBE0F901F9062
:202A4000189526E8230F0296A11DB11DD2CF1F920F920FB60F9211242F933F934F935F936F
:202A60006F937F938F939F93AF93BF93EF93FF938091B900887F803609F44AC0F0F5883219
:202A800009F4A7C018F5803109F49BC0B8F4882309F4F9C0883009F494C0FF91EF91BF9146
:202AA000AF919F918F917F916F915F914F913F912F910F900FBE0F901F901895883109F4F9
:202AC00088C0803251F780934B0214C0803409F49DC040F48033B9F38833F9F680934B02D5
:202AE00085ECB0C0803509F485C0883509F496C0883499F60E944D14D0CF883909F48CC0F7
:202B000038F5883729F050F4883611F0803729F683E080934C0210924A0257C0883809F451
:202B20007BC0803919F0803809F0B7CF80914A02803208F071C0E0914A0281E08E0F80935B
:202B40004A028091BB00F0E0E65DFD4F80833DC0803B39F0E0F4803A09F479C0883A09F09B
:202B60009CCF84E080934C021092290210922802E0917E02F0917F0209958091280281112E
:202B80000FC081E0809328021092080209C0803C09F4A6CF883C09F4A3CF883B09F07DCFEA
:202BA000E091290281E08E0F80932902F0E0E85FFD4F80818093BB00909129028091280284
:202BC00029C0809171028093BB0085EC8093BC0064CF9091700280916F02981758F5E091C5
:202BE000700281E08E0F80937002F0E0E15BFD4F8081E9CFE091700281E08E0F8093700269
:202C00008091BB00F0E0E15BFD4F80839091700280916F029817C8F285E8D8CFE091700218
:202C200081E08E0F809370028091BB00F0E0E15BFD4F808380914E0281115CCF81E0809358
:202C40004D0284EA8093BC0010924C0226CF85EC8093BC0010924C0280914A02803230F4A0
:202C6000E0914A02F0E0E65DFD4F108260914A0270E0E0917C02F0917D028AE292E00995AE
:202C800010924A020ACF10924B0234CFE6E8F2E01382128248EE53E060E070E0448355831A
:202CA000668377838AE091E09183808385EC90E09587848784EC90E09787868780EC90E050
:202CC000918B808B81EC90E0938B828B82EC90E0958B848B86EC90E0978B868B118E128E64
:202CE000138E148EA3E2B3E013961C921E92129714964D935D936D937C9317978CE191E0B4
:202D000011969C938E93EFE2F3E01382128220E830E03583248380E490E0978386833187C9
:202D2000208793878287168A158614861786168681E0858B848B2FEF3FEF338B228B318BC8
:202D4000208B878B108E128E118E8EE291E091838083148E138EB68FA58F10A2178E8FEF50
:202D600084A385A386A387A380A780E89AE1A6E0B0E085AB96ABA7ABB0AF80EA96E8A1E006
:202D8000B0E081AF92AFA3AFB4AF80E586AF17AE0895789484B5826084BD84B5816084BDBE
:202DA00085B5826085BD85B5816085BD80916E00816080936E0010928100809181008260E0
:202DC0008093810080918100816080938100809180008160809380008091B100846080939A
:202DE000B1008091B00081608093B00080917A00846080937A0080917A00826080937A00C7
:202E000080917A00816080937A0080917A00806880937A001092C100E0919602F091970233
:202E200082E08083E0919202F09193021082E0919402F091950280E1808310929E02E0914A
:202E40009A02F0919B0286E08083E0919802F0919902808180618083E0919802F09199021C
:202E6000808188608083E0919802F0919902808180688083E0919802F091990280818F7D1F
:202E8000808369E571E086E892E00E94391480914E0390914F03892B11F10E9408142091C7
:202EA0003503309136038091330390913403213231050CF094C0B9016052710977FF02C04A
:202EC0006F5F7F4F759567958357910997FD019600E210E023E730E04EE955E093C0209155
:202EE000350330913603C901079697FD0796B3E095958795BA95E1F7209133033091340329
:202F0000AC01429FC001439F900D529F900D11240E94131A90934F0380934E03892B09F0CB
:202F2000BCCF6FE671E086E892E00E9439140E947E1268EE73E080E090E00E940C070E948F
:202F400008140E947E1281E0809343038093440381E090E090934203809341039093400319
:202F600080933F0310923C0310923B0310923E0310923D036AE771E08FE293E00E942A1410
:202F800069E971E08FE293E00E942A1464EA71E08FE293E00E94391462EB71E08FE293E0D6
:202FA0000E94391410923C0310923B0310923E0310923D030E947E12C0E0D0E06AE070E080
:202FC00080E090E00E940C070E947E122097B1F30E94F805882391F30E940000EFCFB901F7
:202FE0006054710977FF02C06F5F7F4F759567958255910997FD019600E410E022E530E042
:203000004EE757E0959587950E94860E82E08093510380914C0390914D03892B09F4DEC0DF
:203020008CE380935003109281021092800210928302109282020E94BC0F8CE895E09093AC
:203040007F0280937E028DE895E090937D0280937C028091570387FD1DC00E946C0561E01F
:20306000809157030E949B0661E070E080E090E00E940C0760E0809157030E949B066AE054
:2030800070E080E090E00E940C0761E0809157030E949B0680914C0390914D03892B09F4EA
:2030A00054C12091640330916503409166035091670360E074E284EF90E00E94EB192051A5
:2030C00031094109510956954795379527952093B80064E08AE995E00E94671160913503E9
:2030E00061508FE293E00E941C1264E086E995E00E9467118091510364E1813009F460E190
:203100008FE293E00E941C1264E082E995E00E9467118FE880936C03809133039091340325
:203120008038910509F02AC180913503909136038034910509F032C180915103813009F471
:203140001BC18FEC80936C03C2E16AED8FE293E00E941C126C2F8FE293E00E941C1261E850
:203160008FE293E00E941C1260916C038FE293E00E941C1269ED8FE293E00E941C1280916C
:20318000510361EF813009F462E28FE293E00E941C1266E08CE895E00E94671180914C033C
:2031A00090914D03892B09F4FDC0209168033091690340916A0350916B0360E074E284EF51
:2031C00090E00E94EB19205131094109510956954795379527952093B800A3CE80915503F6
:2031E0000E946C05809156030E946C0580915503082E000C990BFC01EE5AF54FE491F0E022
:20320000EE0FFF1FE25CF54F2591349130935D0320935C03FC01EA59F54FE491E093620390
:2032200080915603082E000C990BFC01EE5AF54FE491F0E0EE0FFF1FE25CF54FA591B49158
:20324000B0935F03A0935E03FC01EA59F54FE491E09363038C91E82BEC9380914A03909135
:203260004B03892B89F1CFB7F89480917B02811124C0ECE5FAE08491E0E7FAE09491E82F1F
:20328000F0E0EE0FFF1FE85BF54FA591B491EC91E92321F461E08AE00E949B068AE00E94A9
:2032A0006C058CB580618CBD8CB580648CBD8DE00E946C058BE00E946C0580917B028F5F4A
:2032C00080937B02CFBFC5CE809153030E946C05809154030E946C0580915303082E000C9F
:2032E000990BFC01EE5AF54FE491F0E0EE0FFF1FE25CF54F25913491309359032093580317
:20330000FC01EA59F54FE491E093600380915403082E000C990BFC01EE5AF54FE491F0E0C2
:20332000EE0FFF1FE25CF54FA591B491B0935B03A0935A03FC01EA59F54FE491E093610374
:203340008C91E095E823EC9384CE80914A0390914B03892B31F080916D0390916E030E94A8
:203360009C09E0915E03F0915F03908180916303809589238083ADCE8FE9E4CE80369105B6
:2033800069F48091350390913603409739F480915103813029F08FEA80936C03C2E0D5CEBA
:2033A00080E1FACFE0915E03F0915F03808190916303892B8083B5CD8EE291E09093300336
:2033C00080932F0380914E0390914F03009711F00C94AF1A0895A1E21A2EAA1BBB1BFD01D1
:2033E0000DC0AA1FBB1FEE1FFF1FA217B307E407F50720F0A21BB30BE40BF50B661F771F43
:20340000881F991F1A9469F760957095809590959B01AC01BD01CF010895EE0FFF1F0590E7
:20342000F491E02D09940F931F93CF93DF938230910510F482E090E0E0917103F09172033C
:2034400030E020E0B0E0A0E0309799F42115310509F44AC0281B390B24303105D8F58A819C
:203460009B816115710589F1FB0193838283FE0111C0408151810281138148175907E0F0AA
:203480004817590799F4109761F012960C93129713961C933296CF01DF91CF911F910F91E8
:2034A00008950093710310937203F4CF2115310551F04217530738F0A901DB019A01BD0126
:2034C000DF01F801C1CFEF01F9CF9093720380937103CDCFFE01E20FF31F81939193225064
:2034E000310939832883D7CF20916F0330917003232B41F4209102013091030130937003FC
:2035000020936F0320910001309101012115310541F42DB73EB74091040150910501241B9B
:20352000350BE0916F03F0917003E217F307A0F42E1B3F0B2817390778F0AC014E5F5F4F6B
:203540002417350748F04E0F5F1F5093700340936F03819391939FCFF0E0E0E09CCFCF9343
:20356000DF930097E9F0FC01329713821282A0917103B0917203ED0130E020E01097A1F4E5
:2035800020813181820F931F20916F03309170032817390709F061C0F0937003E0936F03CA
:2035A000DF91CF910895EA01CE17DF07E8F54A815B819E0141155105B1F7E901FB83EA839C
:2035C00049915991C40FD51FEC17FD0761F4808191810296840F951FE901998388838281FE
:2035E00093819B838A83F0E0E0E012968D919C9113970097B9F52D913C911197CD01029681
:20360000820F931F20916F03309170032817390739F6309751F51092720310927103B093E5
:203620007003A0936F03BCCFD383C28340815181840F951FC817D90761F44E5F5F4F8881FA
:203640009981480F591F518340838A819B81938382832115310509F0B0CFF0937203E09359
:2036600071039ECFFD01DC01C0CF13821282D7CF81E090E0F8940C94441BDC0101C06D9336
:2036800041505040E0F7089515E0C1E4D5E004C0FE010E940D1A2196C234D107C9F7F894E9
:2036A000FFCF000073038000000000002E068E05BB057B06EC05CA05DE050000000051103A
:2036C000241005148B051D100A10FB0F00000000DA0B8E050514940FE5088B057F0E570E19
:2036E000730E670EE70E8B05A009AF1355089E08A00D830D0B0DAC0C0D0A004F4C45442079
:203700004665617468657257696E672074657374004F4C454420626567756E00436F6E6E92
:20372000656374696E6720746F20535349440A276164616672756974273A00636F6E6E65C4
:2037400063746564210049503A2031302E302E312E32330053656E64696E672076616C20B9
:2037600023300000FFFFFFFFFFFFFFFFFFFFFFFFFFFFFFFFFFFFFFFFFFFFFFFFFFFFFFFF12
:20378000B0930103A0930003FC01E352F54FE491E09305038C91E82BEC938091EC02909177
:2037A000ED02892B89F11FB7F89480911D02811124C0E3EDFAE08491E7EEFAE09491E82F3A
:2037C000F0E0EE0FFF1FE154F54FA591B491EC91E92321F461E08AE00E94FA068AE00E9413
:2037E000A8058CB580618CBD8CB580648CBD8DE00E94A8058BE00E94A80580911D028F5FAF
:2038000080931D021FBF84CE8091F5020E94A8058091F6020E94A8058091F502082E000C4D
:20382000990BFC01E753F54FE491F0E0EE0FFF1FEB54F54F259134913093FB022093FA029C
:20384000FC01E352F54FE491E09302038091F602082E000C990BFC01E753F54FE491F0E056
:20386000EE0FFF1FEB54F54FA591B491B093FD02A093FC02FC01E352F54FE491E093030358
:203880008C91E095E823EC9343CE8091EC029091ED02892B31F080910F03909110030E941E
:2038A000FB09E0910003F09101039081809105038095892380835ECE8FEC95CE80369105C7
:2038C00069F48091D7029091D802409739F48091F302813029F480E180930E0312E086CE03
:2038E0008FEAFACFE0910003F0910103808190910503892B8083B4CED12CC12C8091DB0252
:203900009091DC02C816D906F4F42091D9023091DA0221503109EE24E394F12C860150E0D2
:2039200040E070E060E081ED92E00E946A0D0E949F1461E070E080E090E00E946B0724E010
:20394000C20ED11CDBCF6AEF70E080E090E00E946B070E943F16D12CC12CA090DB02B09045
:20396000DC0231E0A31AB1088091D9029091DA02C816D906CCF4EE24E394F12C10E000E006
:203980009601A50170E060E081ED92E00E946A0D0E949F1461E070E080E090E00E946B0797
:2039A00044E0C40ED11CD9CFB7FC22C02091D9023091DA02215031094091DB025091DC02A6
:2039C00041505109EE24E394F12C850170E060E081ED92E00E946A0D0E949F1461E070E061
:2039E00080E090E00E946B0754E0A51AB108DCCF6AEF70E080E090E00E946B070E943F1608
:203A0000C090D902D090DA0261E0C61AD108A090DB02B090DC0271E0A71AB108D7FC1DC09F
:203A20006091D9027091DA0261507109EE24E394F12C10E000E09601A50181ED92E00E947D
:203A40006A0D0E949F1461E070E080E090E00E946B0784E0C81AD108DACFB7FC22C04091F7
:203A6000DB025091DC02415051096091D9027091DA0261507109EE24E394F12C850130E0AF
:203A800020E081ED92E00E946A0D0E949F1461E070E080E090E00E946B0794E0A91AB10873
:203AA000DCCF6AEF70E080E090E00E946B070E943F16D12CC12C6091D9027091DA02809133
:203AC000DB029091DC02C816D906D4F461507109EE24E394F12C860130E020E050E040E0CD
:203AE00081ED92E00E946A0D0E949F1461E070E080E090E00E946B07A4E0CA0ED11CDBCF10
:203B0000D12CC12C6091D9027091DA02C616D706F4F40091DB021091DC0201501109615068
:203B20007109EE24E394F12C960150E040E081ED92E00E946A0D0E949F1461E070E080E03F
:203B400090E00E946B07B4E0CB0ED11CDBCF60ED77E080E090E00E946B070E943F16D12C61
:203B6000C12C0091DB021091DC02C80117FD019695958795C816D90604F5C601880F991FE5
:203B8000081B190B2091D9023091DA02281B390BEE24E394F12CA601B60181ED92E00E94A8
:203BA0000B0D0E949F1461E070E080E090E00E946B07E2E0CE0ED11CD4CF60ED77E080E0F1
:203BC00090E00E946B070E943F16D12CC12C0091DB021091DC02C80117FD019695958795D9
:203BE000C816D90604F5C601880F991F081B190B2091D9023091DA02281B390B42E0E42ECE
:203C0000F12CA601B60181ED92E00E94FF0D0E949F1461E070E080E090E00E946B07F3E0FE
:203C2000CF0ED11CD4CF60ED77E080E090E00E946B070E943F161EA21DA2D12CC12CE090BF
:203C4000D902F090DA024090DB025090DC024E145F042CF4C701F7FE05C0019603C0C2013E
:203C600057FCFBCF95958795C816D9060CF0D6C057FE03C00FEF401A500A55944794F7FE0F
:203C800003C01FEFE11AF10AF594E79401E010E00C191D0918A30F8F0DA11EA11CA70BA702
:203CA00021E030E0A601440D551DB70181ED92E00E94B90F21E030E0A2014C195D09B70150
:203CC00081ED92E00E94B90FB6016E0D7F1D21E030E0A20181ED92E00E94B90FB7016C1991
:203CE0007D0921E030E0A20181ED92E00E94B90F160110E000E021E030E03AA329A3021588
:203D000013050CF079C04F8D58A157FD0FC051E0251A31086BA57CA56E5F7F4F7CA76BA7B4
:203D20008F8D98A1860F971F98A38F8F0F5F1F4FA9A1BAA11296BAA3A9A3EF8DF8A1EA0FAA
:203D4000FB1FF8A3EF8F38016E0C7F1C21E030E05201A20CB31CA501B30181ED92E00E9425
:203D6000B90F4701801A910A21E030E0A501B40181ED92E00E94B90F21E030E05201A2182A
:203D8000B308A501B30181ED92E00E94B90F21E030E0A501B40181ED92E00E94B90F5201BB
:203DA000A00EB11E21E030E0A5014701820C931CB40181ED92E00E94B90F21E030E0A50194
:203DC0005701A218B308B50181ED92E00E94B90F3201601A710A21E030E0A301B40181ED16
:203DE00092E00E94B90F21E030E0A301B50181ED92E00E94B90F83CF0E949F1461E070E0FA
:203E000080E090E00E946B07F2E0CF0ED11C0DA11EA1045011091EA30DA311CF60ED77E052
:203E200080E090E00E946B070E943F168091D9029091DA024091DB025091DC024817590792
:203E40000CF046C097FD01966C01D594C7945601AA0CBB1C1FEFA11AB10A1C141D04F4F562
:203E60008090DB029090DC0297FE03C02FEF821A920A95948794E090D902F090DA02F7FEC9
:203E800003C03FEFE31AF30AF594E794A4014C195D0902E010E09501B70181ED92E00E9421
:203EA000D20E10E000E023E0A601B401C7010E94DE0E0E949F1461E070E080E090E00E9445
:203EC0006B0743E0C41AD10856E0A51AB108C5CF57FF02C04F5F5F4F6A01B7CF60ED77E04B
:203EE00080E090E00E946B070E943F16D12CC12C4090DB025090DC02C20157FC01969595BB
:203F000087950297C816D9060CF089C0720157FE03C063E0E60EF11CF594E794F594E79413
:203F2000C601880F991F481A590A2090D9023090DA02281A390A241435042CF4C10137FE72
:203F400005C0019603C0C20157FCFBCF959587958E159F050CF47C014701880C991C310195
:203F6000681879085601AE0CBF1C01E010E09301A601B50181ED92E00E94C60EC601840DE4
:203F8000951D98A38F8FAC01415051099301B50181ED92E00E94C60E481859089201A501E4
:203FA000B60181ED92E00E94D20E2C0C3D1CB101615071099201A50181ED92E00E94D20EDF
:203FC00021E0A701B501C5010E94C00F2E183F0891E0291A310822E0A701B501C1010E940D
:203FE000C00F0F8D18A10E191F090150110924E0A701B801C1010E94C00F28E0A701B801E2
:20400000C5010E94C00F0E949F1461E070E080E090E00E946B07A2E0CA0ED11C69CF60EDD3
:2040200077E080E090E00E946B070E943F16912C812CC090DB02D090DC02C601D7FC019648
:20404000959587950297881699060CF05CC05601D7FE03C0B3E0AB0EB11CB594A794B59457
:20406000A7949401220F331FC21AD30A4090D9025090DA02421A530A4C145D042CF4C20170
:2040800057FE05C0019603C0C601D7FCFBCF959587958A159B050CF45C013501660C771C2B
:2040A0001501280C391C92012619370912E0E12EF12C8601A401B10181ED92E00E94B60E0D
:2040C000C618D708E1E0CE1AD108C401840D951D8A199B09860121E0A501B10101970E9438
:2040E000DE0E22E0A501B101C1010E94DE0E0E949F1461E070E080E090E00E946B07F2E08E
:204100008F0E911C96CF60ED77E080E090E00E946B070E943F16912C812CA090D902B090BC
:20412000DA02C090DB02D090DC02CA14DB042CF4C501B7FE05C0019603C0C601D7FCFBCF5D
:2041400095958795881699060CF03FC0D7FE03C00FEFC01AD00AD594C79434016C0C7D1C8D
:20416000B7FE03C01FEFA11AB10AB594A79414012A0C3B1C250148185908C818D908EE2463
:20418000E394F12C83019201A601B50181ED92E00E946A0D9101A301B20181ED92E00E94B3
:2041A0006A0D86019501A301B10181ED92E00E946A0D0E949F1461E070E080E090E00E94C4
:2041C0006B0725E0820E911CA8CF60ED77E080E090E00E946B070E943F168091D902909128
:2041E000DA02E090DB02F090DC02E816F9060CF050C07C0197FF03C03FEFE31AF30AF594A8
:20420000E7941E141F040CF0F9C08091DB029091DC0297FD0196959587955701A80EB91ED6
:204220002091D9023091DA0237FF02C02F5F3F4F359527954701820E931E6901CE18DF08FB
:20424000BC016E197F0978A36F8FA616B7060CF4ACC4EF8DF8A1AE16BF0609F14427552711
:204260004E195F09C5016F8D78A1861B970B9CA78BA7D401AC19BD09BAA7A9A77EA36DA39A
:20428000B8A2AF8E46016901B8AEAFAA1AA219A2A6C4F7FEB4CF4FEFE41AF40AB0CFC2162D
:2042A000D30654F0922F832F2C153D0514F49C2D8D2D6901292F382F8C149D042CF028159D
:2042C00039050CF494014601281939092F5F3F4F02E010E04F8D58A1B40181ED92E00E9447
:2042E000C60E0E949F1461E070E080E090E00E946B07A5E0EA1AF10884CF49A55AA5052E2B
:20430000000C660B770B4FA758AB69AB7AAB91012A193B09A9A5BAA50E9487272B013C01ED
:2043200091016DA17EA1261B370BD7010E9487276DA37EA38FA398A789A19AA1092E000CC9
:20434000AA0BBB0B89A39AA3ABA3BCA30BA51CA5012E000C220B330B0BA71CA72DA73EA787
:204360002F8D38A1221533050CF4BBCFC301B20129A13AA14BA15CA10E9424278401020F27
:20438000131F6DA17EA18FA198A52BA53CA54DA55EA50E942427B601620F731F8FA598A98F
:2043A000A9A9BAA9480E591E6A1E7B1E2DA13EA14FA158A58BA99CA9ADA9BEA9280F391FFB
:2043C0004A1F5B1F2DA33EA34FA358A7601771072CF0962F872FB801092F182F061B170B57
:2043E00098012F5F3F4F02E010E0A10181ED92E00E94C60E9FEF291A390AB2CF60ED77E005
:2044000080E090E00E946B070E943F1681E08093E5028093E60221E030E03093E4022093FE
:20442000E3023093E2022093E1021092DE021092DD021092E0021092DF028093E90210E062
:2044400000E060E20A30110509F0602F81ED92E00E94390C0F5F1F4F0115B1E01B0789F776
:204460000E949F1460ED77E080E090E00E946B070E943F1681E08093E5028093E60201E031
:2044800010E01093E4020093E3021093E2020093E1021092DE021092DD021092E002109205
:2044A000DF0261E47AE081ED92E00E94EF161092E2021092E1021093E4020093E3022AE0DF
:2044C00043E050E060E070E081ED92E00E9470166EE281ED92E00E94390C2AE041E050E07F
:2044E00060E070E081ED92E00E9470162AE044E050E060E070E081ED92E00E9470166AE5DF
:2045000071E081ED92E00E94611622E0F22EF092E502F092E6021093E4020093E3021093B8
:20452000E2020093E1026EE37AE081ED92E00E94C90520E14FEE5EEB6DEA7EED81ED92E0FD
:204540000E9470166AE571E081ED92E00E9461160E949F1460ED77E080E090E00E946B07BD
:204560000E943F16F092E502F092E6021093E4020093E3021093E2020093E1028AE090E099
:204580009093DE028093DD021092E0021092DF0265E67AE081ED92E00E94EF160E949F149E
:2045A00064E670E080E090E00E946B078091EE029091EF02892B09F46CC260910603709190
:2045C000070380910803909109030E94CA1162E082E59AE00E94881360E081ED92E00E94E9
:2045E0003D1460E081ED92E00E943D146FE081ED92E00E943D1463E08FE49AE00E948813C8
:204600008091EE029091EF02892B09F459C260910A0370910B0380910C0390910D030E94BB
:20462000CA1160ED77E080E090E00E946B070E94BA1568EE73E080E090E00E946B07809108
:20464000EE029091EF02892B09F444C2609106037091070380910803909109030E94CA11D6
:2046600062E087E59AE00E94881360E081ED92E00E943D1460E081ED92E00E943D146FE060
:2046800081ED92E00E943D1463E084E59AE00E9488138091EE029091EF02892B09F431C22D
:2046A00060910A0370910B0380910C0390910D030E94CA1160ED77E080E090E00E946B0797
:2046C0000E94BA1568EE73E080E090E00E946B078091EE029091EF02892B09F41CC2609149
:2046E00006037091070380910803909109030E94CA1162E08DE59AE00E9488136091D702AB
:2047000081ED92E00E943D1462E08BE59AE00E94881360E081ED92E00E943D1460E081ED9C
:2047200092E00E943D1467E081ED92E00E943D1462E089E59AE00E9488138091EE02909171
:20474000EF02892B09F4FEC160910A0370910B0380910C0390910D030E94CA1160ED77E079
:2047600080E090E00E946B078091EE029091EF02892B09F4F1C160910603709107038091C9
:204780000803909109030E94CA1162E083E69AE00E9488136091D70281ED92E00E943D1465
:2047A00062E081E69AE00E94881360E081ED92E00E943D1460E081ED92E00E943D1467E02C
:2047C00081ED92E00E943D1462E08FE59AE00E9488138091EE029091EF02892B09F4D3C141
:2047E00060910A0370910B0380910C0390910D030E94CA1160ED77E080E090E00E946B0756
:204800000E94BA1568EE73E080E090E00E946B070E943F168091DB029091DC02AC01405178
:20482000510957FF02C04F5F5F4F559547958091D9029091DA02BC016051710977FF02C0DB
:204840006F5F7F4F75956795F0E1EF2EF12C00E110E02BE73AE081ED92E00E9480100E94FA
:204860009F1468EE73E080E090E00E946B0761E081ED92E00E94001668EE73E080E090E0A6
:204880000E946B0760E081ED92E00E94001668EE73E080E090E00E946B078E010F5F1F4F34
:2048A000AAE07A2EB0EF6B2E85E0282E312C412C512CC090D902D090DA020D2C000CEE08EA
:2048C000FF0831EF832E99249A94A92CB92CE2EFCE16EFEFDE06EE06FE068CF00E94CC26DC
:2048E000A7019601215F3F4F4F4F5F4F0E9424274B015C01FFE08F1A9108A108B108D8012D
:204900008C9211966C920E94CC26A20191010E9424276B017C01BFEFCB1ADB0AEB0AFB0AC3
:20492000F801C28267E77AE088E292E00E94C905882D880C990B0E94DF1662E77AE088E2B5
:2049400092E00E94C90580EF9FEF0E94DF166CE67AE088E292E00E94C905F7FE1EC1C7014D
:20496000B6010E94BC166AE571E088E292E00E9461167A940D5F1F4F71109BCF01E010E0D3
:204980000C0F1D1F025E1F4F18A30F8F90EF392E25E0422E512C612C712C0E943F169E0101
:2049A0002F5F3F4F6901D60111964C911197042E000C550B6C91062E000C770B80E1E82E9A
:2049C000F12C00E110E02BE73AE081ED92E00E948010B3E0CB0ED11CEF8DF8A1EC15FD053A
:2049E00011F70E949F1468EC70E080E090E00E946B078E010F5F1F4FD80111968C91119722
:204A000012969C911297890F11968C93082E000C990B2091DB023091DC028217930794F1EF
:204A20008090D9029090DA02092C000CAA08BB0881EF9FEFAFEFBFEFB2EF8B16BFEF9B06FE
:204A4000AB06BB067CF00E94CC26A5019401215F3F4F4F4F5F4F0E942427DC01CB010F9713
:204A6000A109B109F801808331820E94CC26A30192010E9424276F5F7F4F8F4F9F4FD8012A
:204A800012966C930D5F1F4FC016D10609F0B4CF84CF8091EC029091ED02892B31F0809124
:204AA0000F03909110030E94FB09E0910003F091010390818091050380958923808387CDCF
:204AC000E0910003F0910103808190910503892B8083A7CD8091EC029091ED02892B31F0A4
:204AE00080910F03909110030E94FB09E0910003F0910103908180910503809589238083D2
:204B0000AFCDE0910003F0910103808190910503892B8083CFCD8091EC029091ED02892BE0
:204B200031F080910F03909110030E94FB09E0910003F09101039081809105038095892373
:204B40008083D7CDE0910003F0910103808190910503892B808302CE8091EC029091ED02F5
:204B6000892B31F080910F03909110030E94FB09E0910003F091010390818091050380952B
:204B80008923808302CEE0910003F0910103808190910503892B80832DCE2AE0B701A60158
:204BA00088E292E00E947016DECEA4014C195D09EF8DF8A1EA19FB09FCA7EBA70027112725
:204BC0000E191F091AA709A7FAA3E9A395012150310938AF2FABBEA2ADA290E080E02DA09E
:204BE0003EA01FA618AA19AA1AAA412C512C320187010F2C000C220B330B0BAB1CAB2DAB1D
:204C00003EAB8C01990F220B330B09AF1AAF2BAF3CAF6BA57CA5072E000C880B990B219665
:204C20006CAF7DAF8EAF9FAF2197CA01550FAA0BBB0B25968CAF9DAFAEAFBFAF2597AFA91F
:204C4000B8ADA215B3050CF458CBC301B20129AD3AAD4BAD5CAD0E9424278601020F131F71
:204C60006FA578A989A99AA921962CAD3DAD4EAD5FAD21970E942427B601620F731F2596EF
:204C80002CAD3DAD4EAD5FAD2597420E531E641E751E8FA598A9A9A9BAA92BA93CA94DA9DF
:204CA0005EA9820F931FA41FB51F8FA798ABA9ABBAAB601771072CF0962F872FB801092F6A
:204CC000182F061B170B98012F5F3F4F02E010E0A10181ED92E00E94C60E3FEF231A330A23
:204CE000AECF82E391E09093D2028093D1028091F0029091F102009711F00C943828089538
:204D00008F929F92AF92BF92CF92DF92EF92FF92CF93DF93EC01688179818A819B8161158A
:204D200071058105910521F464E279ED8BE597E02DE133EF41E050E00E94242749015A0126
:204D40009B01AC01A7EAB1E40E9443276B017C01ACEEB4EFA50194010E945127C60ED71E94
:204D6000E81EF91EF7FE06C081E0C81AD108E10880E8F80AC882D982EA82FB82C701B601DF
:204D80009F77DF91CF91FF90EF90DF90CF90BF90AF909F908F9008958F929F92AF92BF92F4
:204DA000CF92DF92EF92FF92609100017091010180910201909103016115710581059105D9
:204DC00021F464E279ED8BE597E02DE133EF41E050E00E94242749015A019B01AC01A7EA3E
:204DE000B1E40E9443276B017C01ACEEB4EFA50194010E945127C60ED71EE81EF91EF7FEBC
:204E000006C081E0C81AD108E10880E8F80AC0920001D0920101E0920201F0920301C701E3
:204E2000B6019F77FF90EF90DF90CF90BF90AF909F908F9008956093000170930101809344
:204E40000201909303010895052E97FB1EF400940E943B2757FD07D00E94562707FC03D0FC
:204E60004EF40C943B2750954095309521953F4F4F4F5F4F089590958095709561957F4F3F
:204E80008F4F9F4F08950E947827A59F900DB49F900DA49F800D911D11240895B7FF0C94F1
:204EA00043270E944327821B930B0895A1E21A2EAA1BBB1BFD010DC0AA1FBB1FEE1FFF1FA5
:204EC000A217B307E407F50720F0A21BB30BE40BF50B661F771F881F991F1A9469F7609581
:204EE0007095809590959B01AC01BD01CF010895A29FB001B39FC001A39F700D811D112468
:204F0000911DB29F700D811D1124911D08950E947827332312F48A1B9B0B0C9491270E9415
:204F20007827B7FF0895821B930B0895EE0FFF1F0590F491E02D09940F931F93CF93DF93A0
:204F40008230910510F482E090E0E0911303F091140330E020E0B0E0A0E0309799F421156A
:204F6000310509F44AC0281B390B24303105D8F58A819B816115710589F1FB019383828372
:204F8000FE0111C0408151810281138148175907E0F04817590799F4109761F012960C937D
:204FA000129713961C933296CF01DF91CF911F910F9108950093130310931403F4CF21153F
:204FC000310551F04217530738F0A901DB019A01BD01DF01F801C1CFEF01F9CF9093140345
:204FE00080931303CDCFFE01E20FF31F819391932250310939832883D7CF20911103309173
:205000001203232B41F4209106013091070130931203209311032091040130910501211525
:20502000310541F42DB73EB74091080150910901241B350BE0911103F0911203E217F307DA
:20504000A0F42E1B3F0B2817390778F0AC014E5F5F4F2417350748F04E0F5F1F50931203B8
:2050600040931103819391939FCFF0E0E0E09CCFCF93DF930097E9F0FC0132971382128275
:20508000A0911303B0911403ED0130E020E01097A1F420813181820F931F2091110330911B
:2050A00012032817390709F061C0F0931203E0931103DF91CF910895EA01CE17DF07E8F523
:2050C0004A815B819E0141155105B1F7E901FB83EA8349915991C40FD51FEC17FD0761F47A
:2050E000808191810296840F951FE90199838883828193819B838A83F0E0E0E012968D9115
:205100009C9113970097B9F52D913C911197CD010296820F931F20911103309112032817BD
:20512000390739F6309751F51092140310921303B0931203A0931103BCCFD383C2834081FC
:205140005181840F951FC817D90761F44E5F5F4F88819981480F591F518340838A819B8117
:20516000938382832115310509F0B0CFF0931403E09313039ECFFD01DC01C0CF138212820D
:20518000D7CF81E090E0F8940C94CD28DC0101C06D9341505040E0F7089515E0CCE7D5E0E7
:2051A00004C0FE010E9496272196CD37D107C9F7F894FFCF01000000000015038000000087
:2051C00000008D06ED051A06DA064B0629063D0600000000721245123C16A7053E122B1221
:2051E0001C1200000000390CED053C16A2114409A705B90FB60ED20EC60EF510A705FF0953
:205200000016B408FD08FF0DE20D6A0D0B0D0D0A0048696969690000FFFFFFFFFFFFFFFF32
:20522000FFFFFFFFFFFFFFFFFFFFFFFFFFFFFFFFFFFFFFFFFFFFFFFFFFFFFFFFFFFFFFFF8E
:20524000FFFFFFFFFFFFFFFFFFFFFFFFFFFFFFFFFFFFFFFFFFFFFFFFFFFFFFFFFFFFFFFF6E
:20526000FFFFFFFFFFFFFFFFFFFFFFFFFFFFFFFFFFFFFFFFFFFFFFFFFFFFFFFFFFFFFFFF4E
:205280003B00646973706C61792E636C656172446973706C617928293B00646973706C61C9
:2052A000792E64726177506978656C2831302C2031302C20535344313330365F57484954C6
:2052C00045290000FFFFFFFFFFFFFFFFFFFFFFFFFFFFFFFFFFFFFFFFFFFFFFFFFFFFFFFF7C
:2052E000FFFFFFFFFFFFFFFFFFFFFFFFFFFFFFFFFFFFFFFFFFFFFFFFFFFFFFFFFFFFFFFFCE
:20530000FFFFFFFFFFFFFFFFFFFFFFFFFFFFFFFFFFFFFFFFFFFFFFFFFFFFFFFFFFFFFFFFAD
:20532000FFFFFFFFFFFFFFFFFFFFFFFFFFFFFFFFFFFFFFFFFFFFFFFFFFFFFFFFFFFFFFFF8D
:20534000FFFFFFFFFFFFFFFFFFFFFFFFFFFFFFFFFFFFFFFFFFFFFFFFFFFFFFFFFFFFFFFF6D
:207E0000112484B714BE81FFF0D085E08093810082E08093C00088E18093C10086E08093FC
:207E2000C20080E18093C4008EE0C9D0259A86E020E33CEF91E0309385002093840096BBAD
:207E4000B09BFECF1D9AA8958150A9F7CC24DD2488248394B5E0AB2EA1E19A2EF3E0BF2E79
:207E6000A2D0813461F49FD0082FAFD0023811F0013811F484E001C083E08DD089C0823404
:207E800011F484E103C0853419F485E0A6D080C0853579F488D0E82EFF2485D0082F10E0A0
:207EA000102F00270E291F29000F111F8ED068016FC0863521F484E090D080E0DECF84364D
:207EC00009F040C070D06FD0082F6DD080E0C81680E7D80618F4F601B7BEE895C0E0D1E0ED
:207EE00062D089930C17E1F7F0E0CF16F0E7DF0618F0F601B7BEE89568D007B600FCFDCF1A
:207F0000A601A0E0B1E02C9130E011968C91119790E0982F8827822B932B1296FA010C016F
:207F200087BEE89511244E5F5F4FF1E0A038BF0751F7F601A7BEE89507B600FCFDCF97BE85
:207F4000E89526C08437B1F42ED02DD0F82E2BD03CD0F601EF2C8F010F5F1F4F84911BD0B8
:207F6000EA94F801C1F70894C11CD11CFA94CF0CD11C0EC0853739F428D08EE10CD085E9AE
:207F80000AD08FE07ACF813511F488E018D01DD080E101D065CF982F8091C00085FFFCCF0A
:207FA0009093C60008958091C00087FFFCCF8091C00084FD01C0A8958091C6000895E0E68F
:207FC000F0E098E1908380830895EDDF803219F088E0F5DFFFCF84E1DECF1F93182FE3DF47
:207FE0001150E9F7F2DF1F91089580E0E8DFEE27FF270994FFFFFFFFFFFFFFFFFFFF040425
:00000001FF
